:020000040800F2
:1000000000000120C50700089D0700089F070008A1
:10001000E1050008E3050008E50500080000000010
:10002000000000000000000000000000E7050008DC
:10003000A107000800000000E7050008910600087D
:10004000150800081508000815080008150800081C
:10005000150800081508000815080008150800080C
:1000600015080008150800081508000815080008FC
:1000700015080008150800081508000815080008EC
:100080001508000815080008150800080000000001
:10009000000000000000000000000000150800083B
:1000A00015080008A507000815080008150800082D
:1000B00015080008150800081508000815080008AC
:1000C000150800081508000815080008150800089C
:1000D00015080008150800081508000800000000B1
:1000E00015080008150800081508000800000000A1
:1000F00000000000000000000000000015080008DB
:100100000000000015080008150800081508000880
:1001100000000000000000000000000000000000DF
:10012000150800081508000815080008150800083B
:10013000150800080000000000000000000000009A
:10014000000000000000000000000000150800088A
:10015000150800081508000815080008150800080B
:100160001508000815080008000000000000000045
:10017000000000000000000000000000000000007F
:10018000000000001508000800000000000000004A
:040190001508000846
:1001940010B5054C237833B9044B13B10448AFF3BD
:1001A40000800123237010BD0C000020000000001B
:1001B4002811000808B5034B1BB103490348AFF3EA
:1001C400008008BD00000000100000202811000875
:1001D40053B94AB9002908BF00281CBF4FF0FF31AA
:1001E4004FF0FF3000F088B9ADF1080C6DE904CE92
:1001F40000F006F8DDF804E0DDE9022304B07047FE
:100204002DE9F047089D8E4604468846002B4AD1C6
:100214008A42174662D9B2FA82F64EB1C6F1200379
:1002240001FA06F820FA03F3B74043EA0808B44099
:100234004FEA174E1FFA87FCB8FBFEF1230C0EFBA6
:10024400118843EA084301FB0CF29A4209D9FB18CE
:1002540001F1FF3080F0EA809A4240F2E7800239EF
:100264003B449A1AA3B2B2FBFEF00EFB102243EAFF
:10027400024300FB0CFC9C4509D9FB1800F1FF323A
:1002840080F0D6809C4540F2D3803B44023840EA5B
:100294000140A3EB0C0300211DB1F3400022C5E98A
:1002A4000032BDE8F0878B4205D90DB1C5E90001E4
:1002B40000210846F5E7B3FA83F1002946D17345D6
:1002C40002D3824200F20581841A6EEB03020120FC
:1002D4009046002DE5D0C5E90048E2E7002A00F089
:1002E4009080B2FA82F6002E40F0A4808A1A030CA1
:1002F4004FEA174E80B2BCB20121B2FBFEFC0EFBEA
:100304001C2243EA024304FB0CF29A4207D9FB186D
:100314000CF1FF3802D29A4200F2E080C4469B1AE4
:10032400B3FBFEF20EFB123340EA034302FB04F478
:100334009C4207D9FB1802F1FF3002D29C4200F222
:10034400CA8002461B1B42EA0C40A5E7C1F1200605
:100354008B4022FA06F71F430EFA01F420FA06F343
:100364002EFA06FE4FEA1749234300FA01F81FFA52
:1003740087FCBEFBF9F01C0C09FB10EE44EA0E44AA
:1003840000FB0CFEA64502FA01F209D93C1900F162
:10039400FF3A80F09C80A64540F2998002383C44A4
:1003A400A4EB0E041FFA83FEB4FBF9F309FB134418
:1003B4004EEA044403FB0CFCA44508D93C1903F1A0
:1003C400FF3E80F08280A4457FD9023B3C4443EA4F
:1003D4000040A4EB0C04A0FB02EC64457346E14628
:1003E40062D35FD05DB1B8EB030264EB090404FA95
:1003F40006F622FA01F31E43CC40C5E9006400214D
:100404004FE7B1FBF2FC010C41EA0E4180B240EA35
:1004140001423B4638463C46B846BE462026B1FB20
:10042400F7F1A2EB080241EA0C4166E7014618E73E
:1004340010462CE7C6F120022EFA02F3B740B14071
:1004440020FA02F24FEA174E0A43B3FBFEF8BCB29D
:100454000EFB1833110C41EA034108FB04F9B040C8
:1004640089454FEA104380B23ED9791808F1FF3C20
:1004740001D289451FD8A1EB0901B1FBFEF909FBA3
:1004840004F80EFB191192B242EA0142424529D204
:10049400BA1809F1FF31C4D24245C2D2A9F102010E
:1004A4003A44BEE7F0459DD2BEEB02036CEB070C69
:1004B4000138E14696E7A7EB09094944A8F1020C83
:1004C400B1FBFEF909FB04F8DBE773467FE750460E
:1004D40066E70846FDE63B44023A33E7ACF1020C1A
:1004E4003B441CE749469CE7A1EB0901C446B1FB28
:1004F400FEF909FB04F8C4E7704700BF10B594B0D7
:10050400102200210AA800F0E1FD1422002103A812
:1005140000F0DCFD204B002101911A6C42F0805266
:100524001A641B6C1D4A03F080530193019B0291D2
:10053400136823F4404343F400431360136803F443
:1005440040430293029B01224FF480330224CDE9FD
:1005540008234FF48003CDE90E431921A823CDE9E4
:10056400101308A804231294139300F0D1F908B1CE
:1005740072B6FEE70F23CDE903344FF48053CDE97F
:1005840006300590214603A800F09EFB08B172B620
:10059400FEE714B010BD00BF0038024000700040F8
:1005A40007B500F037F9FFF7A9FF00230193054BC6
:1005B4001A6B42F080021A631B6B03F080030193F1
:1005C400019BFEE7003802400268034B9A4201D1C6
:1005D40000F03AB9704700BF00000140FEE7FEE7B3
:1005E400FEE700002DE9F043244B25481B784C22FC
:1005F40002FB030292F84410022915D1C3B192F907
:1006040045605FB21F4A1E4D92F8008000223146B9
:1006140001249446A0450DDC4C1C21D14BB31A4B4C
:100624004FF080525A6024E000274FF0FF36E9E78C
:100634001F46FAE795F891E08E450EDB95F8909009
:10064400B9F1010F09D14FFA84FC27B14FF0FF37FC
:100654008E4208BF62464FFA8EF101344C35D9E719
:100664004C2404FB020090F84500814203D19342DC
:10067400D5D1BDE8F0836345FAE700BF2D00002023
:10068400300000202C00002000ED00E00D4970B483
:100694000B6801330B600C4B18780C4B00220124BF
:1006A400904202DC70BCFFF79DBF0D681E6CAE4229
:1006B40005D393F84450032D08BF83F84440013216
:1006C4004C33EDE7280000202C00002030000020EF
:1006D40082B00C4B002100915A6C42F480425A645F
:1006E4005A6C02F480420092009A01911A6C42F012
:1006F40080521A641B6C03F080530193019B02B077
:10070400704700BF0038024070B588B000241D4B0C
:1007140002945A6C1C4D42F001025A645B6C03F063
:10072400010301A90293064603A8029B00F076FB8D
:1007340000F064FB154B2B6040F2E733EB60144B85
:10074400B0FBF3F00138686028462C61AC60AC6102
:1007540000F08EFC044680B9284600F07FFB044676
:1007640058B9192000F0C6F80F2E09D82246314690
:10077400192000F08DF8074B1E60204608B070BDAC
:100784000124FAE700380240F00400200000014090
:1007940040420F0008000020FEE7FEE7704700001B
:1007A400014800F091BB00BFF0040020034AD2F8D6
:1007B400883043F47003C2F88830704700ED00E0DD
:1007C400DFF834D0FFF7F2FF0C480D490D4A00233F
:1007D40002E0D458C4500433C4188C42F9D30A4AF2
:1007E4000A4C002301E013600432A242FBD300F060
:1007F40075FCFFF7D5FE70470000012000000020C3
:100804000C000020681100080C0000203C050020AA
:10081400FEE7000008B50B4B1A6842F400721A6038
:100824001A6842F480621A601A6842F480721A608C
:10083400032000F01BF80F20FFF766FFFFF748FFC7
:10084400002008BD003C0240034A044B11681B7899
:100854000B441360704700BF3805002004000020DB
:10086400014B1868704700BF380500200749CA6863
:1008740022F4E0620302120403F4E063120C134353
:1008840043F0BF6343F40033CB60704700ED00E0F6
:10089400164B30B5DC68C4F30224C4F10703251DEC
:1008A400042B28BF0423062D4FF0FF358CBF033CD7
:1008B400002405FA03F321EA0303A54022EA050212
:1008C400A340002843EA0203ACBF00F16040084A99
:1008D4004FEA0313B8BF00F00F00DBB2AABF00F564
:1008E4006140135480F8003330BD00BF00ED00E0D8
:1008F40014ED00E0002807DB044A4109012300F05D
:100904001F00834042F82130704700BF00E100E03F
:100914002DE9F341044640B30368DE0710D423688D
:100924009D075BD42368190700F19D8023685A074B
:1009340000F1BD80A369002B40F0248100202CE04D
:100944008D4B9A6802F00C02042A07D09A6802F0D0
:100954000C02082A0BD15B68590208D5864B1B6828
:100964009A03DCD56368002BD9D1012015E06368B4
:10097400814DB3F5803F13D12B6843F480332B6052
:10098400FFF76EFF7C4E054633689B03C7D4FFF721
:1009940067FF401B6428F7D9032002B0BDE8F0814B
:1009A400B3F5A02F04D12B6843F480232B60E3E735
:1009B4002A6822F480322A602A6822F480222A607B
:1009C400002BDDD1FFF74CFF06462B689F03A6D50D
:1009D400FFF746FF801B6428F7D9DDE7664B9A686A
:1009E40012F00C0F07D09A6802F00C02082A11D1F9
:1009F4005B685D020ED4604A1368990702D5E36808
:100A0400012BB2D11368216923F0F80343EAC1032F
:100A1400136087E7E268594BB2B101221A60FFF70D
:100A24001FFF554D06462B689B0707D52B68226987
:100A340023F0F80343EAC2032B6073E7FFF710FFC8
:100A4400801B0228EFD9A7E71A60FFF709FF4A4E77
:100A5400054633689F077FF565AFFFF701FF401B2D
:100A64000228F6D998E76269444B82B10122C3F89F
:100A7400802EFFF7F5FE404E0546736F9B073FF54A
:100A840055AFFFF7EDFE401B0228F6D984E7C3F803
:100A9400802EFFF7E5FE384E0546736F9F077FF5FE
:100AA40045AFFFF7DDFE401B0228F6D974E7324B51
:100AB4001A6C12F0805228D101921A6C42F08052C2
:100AC4001A641B6C03F080530193019B01272C4D86
:100AD4002B68D8051BD5A368274D012B27D12B6F75
:100AE40043F001032B67FFF7BBFE234E054641F29B
:100AF4008838336F9A0739D5002F3FF41BAF1E4A4D
:100B0400136C23F08053136414E70027DFE72B688A
:100B140043F480732B60FFF7A3FE06462B68D905C8
:100B2400D9D4FFF79DFE801B0228F7D934E7052BA3
:100B340004D12B6F43F004032B67D0E72A6F22F014
:100B440001022A672A6F22F004022A67002BCAD105
:100B5400FFF786FE41F2883806462B6F9B07CBD5FC
:100B6400FFF77EFE801B4045F7D915E7FFF778FEB7
:100B7400401B4045BDD90FE7003802400000474202
:100B840000700040374DAA6802F00C02082A3ED0DB
:100B9400022B354B4FF000021A662BD1FFF760FE93
:100BA40006462B6899011FD4D4E907321343626ABD
:100BB40043EA8213E26A43EA0263A26A5208013AF0
:100BC40043EA02436B60284B264D01221A66FFF765
:100BD40047FE04462B689A013FF5B0AEFFF740FE8E
:100BE400001B0228F6D9D7E6FFF73AFE801B02283D
:100BF400D7D9D1E6FFF734FE04462B689B017FF575
:100C04009DAEFFF72DFE001B0228F6D9C4E6012B8A
:100C14003FF4ABAE6B68E26903F4800191427FF468
:100C2400A4AE216A03F03F028A427FF49EAE616A59
:100C340047F6C0721A40B2EB811F7FF496AEA26AE7
:100C4400520803F44031013AB1EB024F7FF48DAE08
:100C5400E26A03F07063B3EB026F14BF012000205B
:100C64009BE600BF0038024000004742134908B524
:100C74008B6803F00C03042B1CD0082B1CD14A688E
:100C84004B68496813F4800314BF0D480D48C1F341
:100C9400881118BF002302F03F02A1FB0001FFF7F7
:100CA40097FA064B5B68C3F3014301335B00B0FB67
:100CB400F3F008BD0248FCE70248FAE700380240B6
:100CC40040787D010024F4002DE9F0410D460446EE
:100CD40010B90120BDE8F081434B1A6802F0070205
:100CE4008A4228D321688F072DD4C80740D43E4BAD
:100CF4001A6802F00702AA4265D8226851076BD429
:100D0400130707D5394A2169936823F4604343EAFA
:100D1400C1039360FFF7AAFF344B354A9B68C3F3C2
:100D24000313D35CD840334B1860334B1868FFF778
:100D3400EBFC0020CEE7CAB21A701B6803F007036D
:100D44008B42C6D1CEE7294B11F0040F1EBF9A681F
:100D540042F4E0529A600E0742BF9A6842F460423D
:100D64009A609A68A06822F0F00202439A60BCE795
:100D740062681E4B012A1CD11B6813F4003FA8D0E3
:100D84001A4EB36823F003031343B360FFF768FDFF
:100D940041F288380746B368626803F00C03B3EB8A
:100DA400820FA4D0FFF75CFDC01B4045F3D903209C
:100DB40090E7911E01291B6802D813F0007FDEE73B
:100DC40013F0020FDBE7EAB21A701B6803F00703A3
:100DD400AB427FF47EAF90E70449E0688B6823F46C
:100DE400E05303438B608BE7003C02400038024031
:100DF400481100080000002008000020044B054AA8
:100E04009B68C3F34233D35C034A1068D8407047ED
:100E14000038024040110008000000200F23036046
:100E24000B4B9A6802F0030242609A6802F0F002E7
:100E340082609A6802F4E052C2609B68DB0803F4A3
:100E4400E0530361034B1B6803F007030B60704717
:100E540000380240003C02407047000090F83D30EA
:100E6400012B28D1022380F83D300368DA6842F070
:100E74000102DA60114A934212D0B3F1804F0FD0CD
:100E8400A2F57C4293420BD002F58062934207D0D4
:100E940002F58062934203D002F59A32934204D160
:100EA4009A6802F00702062A03D01A6842F0010287
:100EB4001A60002070470120704700BF0000014005
:100EC4007047704770477047036870B5DD681E69E6
:100ED400B10704460DD5AA070BD56FF002021A61BB
:100EE400012202779B699B0769D0FFF7EAFF002381
:100EF4002377710710D56A070ED523686FF00402B3
:100F04001A61022222779B6913F4407F20465CD049
:100F1400FFF7D7FF0023237733070FD528070DD515
:100F240023686FF008021A6104222277DB699907AB
:100F3400204650D0FFF7C5FF00232377F20610D5D3
:100F4400EB060ED523686FF010021A61082222778F
:100F5400DB6913F4407F204643D0FFF7B2FF002340
:100F64002377F00708D5E90706D523686FF0010257
:100F74001A612046FFF728FB320608D52B0606D552
:100F840023686FF080021A61204600F09EF8700614
:100F940008D5690606D523686FF040021A61204619
:100FA400FFF791FFB20622D5AB0620D523686FF078
:100FB400200220461A61BDE8704000F085B8FFF7B2
:100FC4007FFF2046FFF77EFF91E7FFF779FF20467A
:100FD400FFF778FF9EE7FFF773FF2046FFF772FFE6
:100FE400AAE7FFF76DFF2046FFF76CFFB7E770BD78
:100FF4001D4A036890420ED0B0F1804F0BD0A2F589
:101004007C42904207D002F58062904203D002F500
:101014008062904208D14A6823F070031343CA687F
:1010240023F4407313430AE0104A9042F7D002F5C8
:1010340080629042F3D002F580629042EFD04A6918
:1010440023F0800313438A68C2620A688262064AF4
:10105400904204BF0A690263026842F0040202601B
:1010640001224261036070470000014000400140DA
:1010740010B5044630B390F83D3003F0FF021BB9BD
:1010840080F83C20FFF7E8FE0223206884F83D3016
:10109400211DFFF7ADFF012384F84630002084F8BA
:1010A4003E3084F83F3084F8403084F8413084F88E
:1010B400423084F8433084F8443084F8453084F86E
:1010C4003D3010BD0120FCE77047704702440346E1
:1010D400934200D1704703F8011BF9E770B50D4D39
:1010E4000D4C641BA4100026A64209D10B4D0C4CD8
:1010F40000F018F8641BA4100026A64205D170BDA8
:1011040055F8043B98470136EEE755F8043B9847F9
:101114000136F2E760110008601100086011000850
:1011240064110008F8B500BFF8BC08BC9E467047BF
:0C113400F8B500BFF8BC08BC9E46704730
:101140000000000001020304000000000000000095
:0811500001020304060708096F
:08115800ACF0FF7F0100000074
:04116000B9010008C9
:0411640095010008E9
:0C1168000024F400010000001000000052
:04000005080007C523
:00000001FF
